{
  "contractName": "Bank",
  "abi": [
    {
      "constant": true,
      "inputs": [
        {
          "name": "",
          "type": "address"
        }
      ],
      "name": "balanceOf",
      "outputs": [
        {
          "name": "",
          "type": "uint256"
        }
      ],
      "payable": false,
      "stateMutability": "view",
      "type": "function"
    },
    {
      "constant": false,
      "inputs": [
        {
          "name": "amount",
          "type": "uint256"
        }
      ],
      "name": "deposite",
      "outputs": [],
      "payable": true,
      "stateMutability": "payable",
      "type": "function"
    },
    {
      "constant": false,
      "inputs": [
        {
          "name": "amount",
          "type": "uint256"
        }
      ],
      "name": "withdrawal",
      "outputs": [],
      "payable": false,
      "stateMutability": "nonpayable",
      "type": "function"
    }
  ],
  "bytecode": "0x6060604052341561000f57600080fd5b6102708061001e6000396000f300606060405260043610610057576000357c0100000000000000000000000000000000000000000000000000000000900463ffffffff1680633104562b1461005c57806370a0823114610074578063835fc6ca146100c1575b600080fd5b61007260048080359060200190919050506100e4565b005b341561007f57600080fd5b6100ab600480803573ffffffffffffffffffffffffffffffffffffffff16906020019091905050610150565b6040518082815260200191505060405180910390f35b34156100cc57600080fd5b6100e26004808035906020019091905050610168565b005b80341415156100f257600080fd5b60008111151561010157600080fd5b806000803373ffffffffffffffffffffffffffffffffffffffff1673ffffffffffffffffffffffffffffffffffffffff1681526020019081526020016000206000828254019250508190555050565b60006020528060005260406000206000915090505481565b6000803373ffffffffffffffffffffffffffffffffffffffff1673ffffffffffffffffffffffffffffffffffffffff1681526020019081526020016000205481111515156101b557600080fd5b806000803373ffffffffffffffffffffffffffffffffffffffff1673ffffffffffffffffffffffffffffffffffffffff168152602001908152602001600020600082825403925050819055503373ffffffffffffffffffffffffffffffffffffffff166108fc829081150290604051600060405180830381858888f19350505050151561024157600080fd5b505600a165627a7a72305820d72ea2aac31705141e0d5d978e026dede904f371460a5695d53b1ffa086716180029",
  "source": "pragma solidity ^0.4.21;\n\ncontract Bank {\n    // The value of a missing mapping value is 0\n    mapping(address => uint256) public balanceOf;\n\n    function deposite(uint256 amount) public payable {\n        require(msg.value == amount);\n        require(amount > 0);\n        balanceOf[msg.sender] += amount;\n    }\n\n    function withdrawal(uint256 amount) public {\n        require(amount <= balanceOf[msg.sender]);\n        // must call before transferring ether to avoid Reentrancy Vulnerability\n        balanceOf[msg.sender] -= amount;\n        msg.sender.transfer(amount);\n    }\n}\n",
  "sourcePath": "/home/gasolin/Documents/eth/truffle-react-demo/contracts/contracts/Bank.sol",
  "compiler": {
    "name": "solc",
    "version": "0.4.21+commit.dfe3193c.Emscripten.clang"
  },
  "schemaVersion": "2.0.0",
  "updatedAt": "2018-04-18T02:46:40.662Z"
}