{
  "contractName": "CommunityChest",
  "abi": [
    {
      "constant": false,
      "inputs": [],
      "name": "withdraw",
      "outputs": [],
      "payable": false,
      "stateMutability": "nonpayable",
      "type": "function"
    },
    {
      "constant": false,
      "inputs": [
        {
          "name": "amount",
          "type": "uint256"
        }
      ],
      "name": "deposit",
      "outputs": [],
      "payable": true,
      "stateMutability": "payable",
      "type": "function"
    },
    {
      "constant": true,
      "inputs": [],
      "name": "getBalance",
      "outputs": [
        {
          "name": "",
          "type": "uint256"
        }
      ],
      "payable": false,
      "stateMutability": "view",
      "type": "function"
    }
  ],
  "bytecode": "0x6060604052341561000f57600080fd5b6101678061001e6000396000f300606060405260043610610057576000357c0100000000000000000000000000000000000000000000000000000000900463ffffffff16806312065fe01461005c5780633ccfd60b14610085578063b6b55f251461009a575b600080fd5b341561006757600080fd5b61006f6100b2565b6040518082815260200191505060405180910390f35b341561009057600080fd5b6100986100d1565b005b6100b0600480803590602001909190505061012a565b005b60003073ffffffffffffffffffffffffffffffffffffffff1631905090565b3373ffffffffffffffffffffffffffffffffffffffff166108fc3073ffffffffffffffffffffffffffffffffffffffff16319081150290604051600060405180830381858888f19350505050151561012857600080fd5b565b803414151561013857600080fd5b505600a165627a7a72305820cbcd79422449189a61f42de8b1afb2e26e5a91a2d76ee5af61b15bcc41fa7b340029",
  "source": "pragma solidity ^0.4.21;\n\ncontract CommunityChest {\n    function withdraw() public {\n        // .transfer is prefered than .send\n        msg.sender.transfer(address(this).balance);\n    }\n\n    // If contract did not have a payable fallback function,\n    // this transaction would have simply failed\n    // function() payable public {}\n\n    function deposit(uint256 amount) payable public {\n        require(msg.value == amount);\n    }\n\n    function getBalance() public view returns (uint256) {\n        return address(this).balance;\n    }\n}\n",
  "sourcePath": "/home/gasolin/Documents/eth/truffle-react-demo/contracts/contracts/CommunityChest.sol",
  "compiler": {
    "name": "solc",
    "version": "0.4.21+commit.dfe3193c.Emscripten.clang"
  },
  "schemaVersion": "2.0.0",
  "updatedAt": "2018-04-20T08:31:25.070Z"
}