{
  "contractName": "Counter",
  "abi": [
    {
      "constant": true,
      "inputs": [],
      "name": "count",
      "outputs": [
        {
          "name": "",
          "type": "uint256"
        }
      ],
      "payable": false,
      "stateMutability": "view",
      "type": "function"
    },
    {
      "inputs": [
        {
          "name": "_count",
          "type": "uint256"
        }
      ],
      "payable": false,
      "stateMutability": "nonpayable",
      "type": "constructor"
    },
    {
      "anonymous": false,
      "inputs": [
        {
          "indexed": false,
          "name": "who",
          "type": "address"
        }
      ],
      "name": "EvtIncrement",
      "type": "event"
    },
    {
      "constant": false,
      "inputs": [],
      "name": "increment",
      "outputs": [],
      "payable": false,
      "stateMutability": "nonpayable",
      "type": "function"
    },
    {
      "constant": true,
      "inputs": [],
      "name": "getCount",
      "outputs": [
        {
          "name": "",
          "type": "uint256"
        }
      ],
      "payable": false,
      "stateMutability": "view",
      "type": "function"
    }
  ],
  "bytecode": "0x6060604052341561000f57600080fd5b6040516020806101b5833981016040528080519060200190919050508060008190555050610173806100426000396000f300606060405260043610610057576000357c0100000000000000000000000000000000000000000000000000000000900463ffffffff16806306661abd1461005c578063a87d942c14610085578063d09de08a146100ae575b600080fd5b341561006757600080fd5b61006f6100c3565b6040518082815260200191505060405180910390f35b341561009057600080fd5b6100986100c9565b6040518082815260200191505060405180910390f35b34156100b957600080fd5b6100c16100d2565b005b60005481565b60008054905090565b7fcdf7d75bde78f268b0579c0f991db381002c984fb5d151bb1d4b2837d1a8bd4933604051808273ffffffffffffffffffffffffffffffffffffffff1673ffffffffffffffffffffffffffffffffffffffff16815260200191505060405180910390a1600160008082825401925050819055505600a165627a7a723058208460087683aa2baa40ec9ab6e413827af01bc0acaca2d8492900b5c72f9268270029",
  "source": "pragma solidity ^0.4.21;\n\ncontract Counter {\n    // https://programtheblockchain.com/posts/2018/01/02/making-smart-contracts-with-public-variables/\n    uint256 public count;\n\n    // https://programtheblockchain.com/posts/2018/01/24/logging-and-watching-solidity-events/\n    // Event name with uppercase letters as convension\n    event EvtIncrement(address who);   // declaring event\n\n    function Counter(uint256  _count) public {\n        count = _count;\n    }\n\n    function increment() public {\n        emit EvtIncrement(msg.sender); // logging event\n        count += 1;\n    }\n\n    // equivalent to count()\n    function getCount() public view returns (uint256) {\n        return count;\n    }\n}\n",
  "sourcePath": "/home/gasolin/Documents/eth/truffle-react-demo/contracts/contracts/Counter.sol",
  "compiler": {
    "name": "solc",
    "version": "0.4.21+commit.dfe3193c.Emscripten.clang"
  },
  "schemaVersion": "2.0.0",
  "updatedAt": "2018-04-18T02:46:40.201Z"
}