{
  "contractName": "Counter",
  "abi": [
    {
      "inputs": [
        {
          "name": "_count",
          "type": "uint256"
        }
      ],
      "payable": false,
      "stateMutability": "nonpayable",
      "type": "constructor"
    },
    {
      "constant": false,
      "inputs": [],
      "name": "increment",
      "outputs": [],
      "payable": false,
      "stateMutability": "nonpayable",
      "type": "function"
    },
    {
      "constant": true,
      "inputs": [],
      "name": "getCount",
      "outputs": [
        {
          "name": "",
          "type": "uint256"
        }
      ],
      "payable": false,
      "stateMutability": "view",
      "type": "function"
    }
  ],
  "bytecode": "0x6060604052341561000f57600080fd5b60405160208061010e83398101604052808051906020019091905050806000819055505060cd806100416000396000f3006060604052600436106049576000357c0100000000000000000000000000000000000000000000000000000000900463ffffffff168063a87d942c14604e578063d09de08a146074575b600080fd5b3415605857600080fd5b605e6086565b6040518082815260200191505060405180910390f35b3415607e57600080fd5b6084608f565b005b60008054905090565b600160008082825401925050819055505600a165627a7a72305820654b35316e46acaab9c2e2c5aa3f10f25d63064a9c2ac106793bd38b1d4e30fc0029",
  "source": "pragma solidity ^0.4.19;\n\ncontract Counter {\n    uint256 count;\n\n    function Counter(uint256  _count) public {\n        count = _count;\n    }\n\n    function increment() public {\n        count += 1;\n    }\n\n    function getCount() public view returns (uint256) {\n        return count;\n    }\n}\n",
  "sourcePath": "/home/gasolin/Documents/eth/blockdemo/contracts/contracts/Counter.sol",
  "compiler": {
    "name": "solc",
    "version": "0.4.21+commit.dfe3193c.Emscripten.clang"
  },
  "schemaVersion": "2.0.0",
  "updatedAt": "2018-04-15T02:49:13.151Z"
}