{
  "contractName": "Crowdfunding",
  "abi": [
    {
      "constant": true,
      "inputs": [],
      "name": "deadline",
      "outputs": [
        {
          "name": "",
          "type": "uint256"
        }
      ],
      "payable": false,
      "stateMutability": "view",
      "type": "function"
    },
    {
      "constant": true,
      "inputs": [],
      "name": "goal",
      "outputs": [
        {
          "name": "",
          "type": "uint256"
        }
      ],
      "payable": false,
      "stateMutability": "view",
      "type": "function"
    },
    {
      "constant": true,
      "inputs": [
        {
          "name": "",
          "type": "address"
        }
      ],
      "name": "pledgeOf",
      "outputs": [
        {
          "name": "",
          "type": "uint256"
        }
      ],
      "payable": false,
      "stateMutability": "view",
      "type": "function"
    },
    {
      "inputs": [
        {
          "name": "numberOfDays",
          "type": "uint256"
        },
        {
          "name": "_goal",
          "type": "uint256"
        }
      ],
      "payable": false,
      "stateMutability": "nonpayable",
      "type": "constructor"
    },
    {
      "constant": false,
      "inputs": [
        {
          "name": "amount",
          "type": "uint256"
        }
      ],
      "name": "pledge",
      "outputs": [],
      "payable": true,
      "stateMutability": "payable",
      "type": "function"
    },
    {
      "constant": false,
      "inputs": [],
      "name": "claimFunds",
      "outputs": [],
      "payable": false,
      "stateMutability": "nonpayable",
      "type": "function"
    },
    {
      "constant": false,
      "inputs": [],
      "name": "getRefund",
      "outputs": [],
      "payable": false,
      "stateMutability": "nonpayable",
      "type": "function"
    }
  ],
  "bytecode": "0x6060604052341561000f57600080fd5b6040516040806104a783398101604052808051906020019091908051906020019091905050336000806101000a81548173ffffffffffffffffffffffffffffffffffffffff021916908373ffffffffffffffffffffffffffffffffffffffff160217905550620151808202420160018190555080600281905550505061040d8061009a6000396000f300606060405260043610610078576000357c0100000000000000000000000000000000000000000000000000000000900463ffffffff16806329dcb0cf1461007d57806340193883146100a65780637326c9c0146100cf578063ac307773146100e7578063b2d5ae44146100fc578063c5055f2f14610111575b600080fd5b341561008857600080fd5b61009061015e565b6040518082815260200191505060405180910390f35b34156100b157600080fd5b6100b9610164565b6040518082815260200191505060405180910390f35b6100e5600480803590602001909190505061016a565b005b34156100f257600080fd5b6100fa6101d8565b005b341561010757600080fd5b61010f6102c5565b005b341561011c57600080fd5b610148600480803573ffffffffffffffffffffffffffffffffffffffff169060200190919050506103c9565b6040518082815260200191505060405180910390f35b60015481565b60025481565b6001544210151561017a57600080fd5b803414151561018857600080fd5b80600360003373ffffffffffffffffffffffffffffffffffffffff1673ffffffffffffffffffffffffffffffffffffffff1681526020019081526020016000206000828254019250508190555050565b6000809054906101000a900473ffffffffffffffffffffffffffffffffffffffff1673ffffffffffffffffffffffffffffffffffffffff163373ffffffffffffffffffffffffffffffffffffffff1614151561023357600080fd5b6002543073ffffffffffffffffffffffffffffffffffffffff16311015151561025b57600080fd5b600154421015151561026c57600080fd5b3373ffffffffffffffffffffffffffffffffffffffff166108fc3073ffffffffffffffffffffffffffffffffffffffff16319081150290604051600060405180830381858888f1935050505015156102c357600080fd5b565b60006002543073ffffffffffffffffffffffffffffffffffffffff16311015156102ee57600080fd5b60015442101515156102ff57600080fd5b600360003373ffffffffffffffffffffffffffffffffffffffff1673ffffffffffffffffffffffffffffffffffffffff1681526020019081526020016000205490506000600360003373ffffffffffffffffffffffffffffffffffffffff1673ffffffffffffffffffffffffffffffffffffffff168152602001908152602001600020819055503373ffffffffffffffffffffffffffffffffffffffff166108fc829081150290604051600060405180830381858888f1935050505015156103c657600080fd5b50565b600360205280600052604060002060009150905054815600a165627a7a723058202584f5e7a596be782662a948c4ae17a6d021a80fe1b0cabb86a0ad16f3d3eb970029",
  "source": "pragma solidity ^0.4.21;\n\n// TODO should able to stop/resume the compaign\ncontract Crowdfunding {\n    address owner;\n    uint256 public deadline;\n    uint256 public goal;\n    mapping(address => uint256) public pledgeOf;\n\n    modifier onlyOwner() {\n        require(msg.sender == owner);\n        _;\n    }\n\n    function Crowdfunding(uint256 numberOfDays, uint256 _goal) public {\n        owner = msg.sender;\n        deadline = now + (numberOfDays * 1 days);\n        goal = _goal;\n    }\n\n    // make sure the conditions are correct\n    function pledge(uint256 amount) public payable {\n        require(now < deadline);\n        require(msg.value == amount);\n\n        pledgeOf[msg.sender] += amount;\n    }\n\n    // for the owner\n    function claimFunds() public onlyOwner {\n        require(address(this).balance >= goal);\n        require(now >= deadline);\n\n        msg.sender.transfer(address(this).balance);\n    }\n\n    // for the funders\n    function getRefund() public {\n        require(address(this).balance < goal); // fund goal not met\n        require(now >= deadline);\n\n        // safety precaution process\n        uint256 amount = pledgeOf[msg.sender];\n        pledgeOf[msg.sender] = 0;\n        msg.sender.transfer(amount);\n    }\n}\n",
  "sourcePath": "/home/gasolin/Documents/eth/truffle-react-demo/contracts/contracts/Crowdfunding.sol",
  "compiler": {
    "name": "solc",
    "version": "0.4.21+commit.dfe3193c.Emscripten.clang"
  },
  "schemaVersion": "2.0.0",
  "updatedAt": "2018-04-20T08:31:25.546Z"
}