{
  "contractName": "Multicounter",
  "abi": [
    {
      "constant": true,
      "inputs": [
        {
          "name": "",
          "type": "uint256"
        }
      ],
      "name": "counts",
      "outputs": [
        {
          "name": "",
          "type": "uint256"
        }
      ],
      "payable": false,
      "stateMutability": "view",
      "type": "function"
    },
    {
      "anonymous": false,
      "inputs": [
        {
          "indexed": true,
          "name": "which",
          "type": "uint256"
        },
        {
          "indexed": false,
          "name": "who",
          "type": "address"
        }
      ],
      "name": "EvtIncrement",
      "type": "event"
    },
    {
      "constant": false,
      "inputs": [
        {
          "name": "which",
          "type": "uint256"
        }
      ],
      "name": "increment",
      "outputs": [],
      "payable": false,
      "stateMutability": "nonpayable",
      "type": "function"
    }
  ],
  "bytecode": "0x6060604052341561000f57600080fd5b6101778061001e6000396000f30060606040526004361061004c576000357c0100000000000000000000000000000000000000000000000000000000900463ffffffff1680637cf5dab014610051578063dc715d1b14610074575b600080fd5b341561005c57600080fd5b61007260048080359060200190919050506100ab565b005b341561007f57600080fd5b6100956004808035906020019091905050610133565b6040518082815260200191505060405180910390f35b807f663c54700fbdafc7f2043235e48d90392a0651e8133881bc5cc510ef90b1545533604051808273ffffffffffffffffffffffffffffffffffffffff1673ffffffffffffffffffffffffffffffffffffffff16815260200191505060405180910390a260016000808381526020019081526020016000206000828254019250508190555050565b600060205280600052604060002060009150905054815600a165627a7a72305820ce24a85eb542bc0e35311b533083738dfccf75fe0e08029b68bf4c37933c3efe0029",
  "source": "pragma solidity ^0.4.21;\n\ncontract Multicounter {\n    mapping(uint256 => uint256) public counts;\n\n    // indexed parameter can be used to efficiently filter events\n    event EvtIncrement(uint256 indexed which, address who);\n\n    function increment(uint256 which) public {\n        emit EvtIncrement(which, msg.sender);\n        counts[which] += 1;\n    }\n}\n",
  "sourcePath": "/home/gasolin/Documents/eth/truffle-react-demo/contracts/contracts/Multicounter.sol",
  "compiler": {
    "name": "solc",
    "version": "0.4.21+commit.dfe3193c.Emscripten.clang"
  },
  "schemaVersion": "2.0.0",
  "updatedAt": "2018-04-18T09:55:09.674Z"
}