{
  "contractName": "Savings",
  "abi": [
    {
      "inputs": [
        {
          "name": "numberOfDays",
          "type": "uint256"
        }
      ],
      "payable": true,
      "stateMutability": "payable",
      "type": "constructor"
    },
    {
      "constant": false,
      "inputs": [
        {
          "name": "amount",
          "type": "uint256"
        }
      ],
      "name": "deposit",
      "outputs": [],
      "payable": true,
      "stateMutability": "payable",
      "type": "function"
    },
    {
      "constant": false,
      "inputs": [],
      "name": "withdraw",
      "outputs": [],
      "payable": false,
      "stateMutability": "nonpayable",
      "type": "function"
    }
  ],
  "bytecode": "0x60606040526040516020806101fe83398101604052808051906020019091905050336000806101000a81548173ffffffffffffffffffffffffffffffffffffffff021916908373ffffffffffffffffffffffffffffffffffffffff1602179055506201518081024201600181905550506101808061007e6000396000f30060606040526004361061004c576000357c0100000000000000000000000000000000000000000000000000000000900463ffffffff1680633ccfd60b14610051578063b6b55f2514610066575b600080fd5b341561005c57600080fd5b61006461007e565b005b61007c6004808035906020019091905050610143565b005b6000809054906101000a900473ffffffffffffffffffffffffffffffffffffffff1673ffffffffffffffffffffffffffffffffffffffff163373ffffffffffffffffffffffffffffffffffffffff161415156100d957600080fd5b60015442101515156100ea57600080fd5b3373ffffffffffffffffffffffffffffffffffffffff166108fc3073ffffffffffffffffffffffffffffffffffffffff16319081150290604051600060405180830381858888f19350505050151561014157600080fd5b565b803414151561015157600080fd5b505600a165627a7a723058204392c76c7e2cc712cf07d61ee751530afdc3d7497bc6c98ae06b814ee7e227a90029",
  "source": "pragma solidity ^0.4.21;\n\ncontract Savings {\n    address owner;\n    uint256 deadline;\n\n    modifier onlyOwner() {\n        require(msg.sender == owner);\n        _;\n    }\n\n    function Savings(uint256 numberOfDays) public payable {\n        owner = msg.sender;\n        deadline = now + (numberOfDays * 1 days);\n    }\n\n    function deposit(uint256 amount) public payable{\n        require(msg.value == amount);\n    }\n\n    function withdraw() public onlyOwner {\n        require(now >= deadline);\n\n        msg.sender.transfer(address(this).balance);\n    }\n}\n",
  "sourcePath": "/home/gasolin/Documents/eth/truffle-react-demo/contracts/contracts/Savings.sol",
  "compiler": {
    "name": "solc",
    "version": "0.4.21+commit.dfe3193c.Emscripten.clang"
  },
  "schemaVersion": "2.0.0",
  "updatedAt": "2018-04-20T08:31:25.537Z"
}