{
  "contractName": "State",
  "abi": [
    {
      "inputs": [
        {
          "name": "_state",
          "type": "uint256"
        }
      ],
      "payable": false,
      "stateMutability": "nonpayable",
      "type": "constructor"
    },
    {
      "constant": true,
      "inputs": [],
      "name": "getValue",
      "outputs": [
        {
          "name": "",
          "type": "uint256"
        }
      ],
      "payable": false,
      "stateMutability": "view",
      "type": "function"
    }
  ],
  "bytecode": "0x6060604052341561000f57600080fd5b6040516020806100e0833981016040528080519060200190919050508060008190555050609f806100416000396000f300606060405260043610603f576000357c0100000000000000000000000000000000000000000000000000000000900463ffffffff16806320965255146044575b600080fd5b3415604e57600080fd5b6054606a565b6040518082815260200191505060405180910390f35b600080549050905600a165627a7a72305820c5471867e1c953e953628578fbcd0bb3ad10c74232335d87ca5dd9e3d769c3d40029",
  "source": "pragma solidity ^0.4.19;\n\n\ncontract State {\n    uint256 state;\n\n    function State(uint256 _state) public {\n        state = _state;\n    }\n\n    function getValue() public view returns (uint256) {\n        return state;\n    }\n}\n",
  "sourcePath": "/home/gasolin/Documents/eth/blockdemo/contracts/contracts/State.sol",
  "compiler": {
    "name": "solc",
    "version": "0.4.21+commit.dfe3193c.Emscripten.clang"
  },
  "schemaVersion": "2.0.0",
  "updatedAt": "2018-04-15T02:49:13.150Z"
}