{
  "contractName": "State",
  "abi": [
    {
      "inputs": [
        {
          "name": "_state",
          "type": "uint256"
        }
      ],
      "payable": false,
      "stateMutability": "nonpayable",
      "type": "constructor"
    },
    {
      "constant": true,
      "inputs": [],
      "name": "getValue",
      "outputs": [
        {
          "name": "",
          "type": "uint256"
        }
      ],
      "payable": false,
      "stateMutability": "view",
      "type": "function"
    }
  ],
  "bytecode": "0x6060604052341561000f57600080fd5b6040516020806100e0833981016040528080519060200190919050508060008190555050609f806100416000396000f300606060405260043610603f576000357c0100000000000000000000000000000000000000000000000000000000900463ffffffff16806320965255146044575b600080fd5b3415604e57600080fd5b6054606a565b6040518082815260200191505060405180910390f35b600080549050905600a165627a7a723058200d8972f8898ae24a7fc23f2d9da48c4e54d3ced5a19685e455c57cf38e54229f0029",
  "source": "pragma solidity ^0.4.21;\n\ncontract State {\n    uint256 state;\n\n    function State(uint256 _state) public {\n        state = _state;\n    }\n\n    function getValue() public view returns (uint256) {\n        return state;\n    }\n}\n",
  "sourcePath": "/home/gasolin/Documents/eth/truffle-react-demo/contracts/contracts/State.sol",
  "compiler": {
    "name": "solc",
    "version": "0.4.21+commit.dfe3193c.Emscripten.clang"
  },
  "schemaVersion": "2.0.0",
  "updatedAt": "2018-04-18T02:46:40.199Z"
}