{
  "contractName": "TipJar",
  "abi": [
    {
      "inputs": [],
      "payable": false,
      "stateMutability": "nonpayable",
      "type": "constructor"
    },
    {
      "constant": false,
      "inputs": [
        {
          "name": "newOwner",
          "type": "address"
        }
      ],
      "name": "changeOwner",
      "outputs": [],
      "payable": false,
      "stateMutability": "nonpayable",
      "type": "function"
    },
    {
      "constant": false,
      "inputs": [],
      "name": "withdraw",
      "outputs": [],
      "payable": false,
      "stateMutability": "nonpayable",
      "type": "function"
    },
    {
      "constant": false,
      "inputs": [
        {
          "name": "amount",
          "type": "uint256"
        }
      ],
      "name": "deposit",
      "outputs": [],
      "payable": true,
      "stateMutability": "payable",
      "type": "function"
    },
    {
      "constant": true,
      "inputs": [],
      "name": "getBalance",
      "outputs": [
        {
          "name": "",
          "type": "uint256"
        }
      ],
      "payable": false,
      "stateMutability": "view",
      "type": "function"
    }
  ],
  "bytecode": "0x6060604052341561000f57600080fd5b336000806101000a81548173ffffffffffffffffffffffffffffffffffffffff021916908373ffffffffffffffffffffffffffffffffffffffff1602179055506102a48061005e6000396000f300606060405260043610610062576000357c0100000000000000000000000000000000000000000000000000000000900463ffffffff16806312065fe0146100675780633ccfd60b14610090578063a6f9dae1146100a5578063b6b55f25146100de575b600080fd5b341561007257600080fd5b61007a6100f6565b6040518082815260200191505060405180910390f35b341561009b57600080fd5b6100a3610115565b005b34156100b057600080fd5b6100dc600480803573ffffffffffffffffffffffffffffffffffffffff169060200190919050506101c9565b005b6100f46004808035906020019091905050610267565b005b60003073ffffffffffffffffffffffffffffffffffffffff1631905090565b3373ffffffffffffffffffffffffffffffffffffffff166000809054906101000a900473ffffffffffffffffffffffffffffffffffffffff1673ffffffffffffffffffffffffffffffffffffffff1614151561017057600080fd5b3373ffffffffffffffffffffffffffffffffffffffff166108fc3073ffffffffffffffffffffffffffffffffffffffff16319081150290604051600060405180830381858888f1935050505015156101c757600080fd5b565b3373ffffffffffffffffffffffffffffffffffffffff166000809054906101000a900473ffffffffffffffffffffffffffffffffffffffff1673ffffffffffffffffffffffffffffffffffffffff1614151561022457600080fd5b806000806101000a81548173ffffffffffffffffffffffffffffffffffffffff021916908373ffffffffffffffffffffffffffffffffffffffff16021790555050565b803414151561027557600080fd5b505600a165627a7a72305820c13aa19a0e745cbc8599e1af7438660a8bf24e3766f7f464872651dd7ca025050029",
  "source": "pragma solidity ^0.4.21;\n\ncontract TipJar {\n    address owner;\n\n    modifier ownerOnly {\n        require(owner == msg.sender);\n        _;\n    }\n\n    function TipJar() public {\n        owner = msg.sender;\n    }\n\n    function changeOwner(address newOwner) public ownerOnly {\n        owner = newOwner;\n    }\n\n    function withdraw() public ownerOnly {\n        msg.sender.transfer(address(this).balance);\n    }\n\n    // If contract did not have a payable fallback function,\n    // this transaction would have simply failed\n    // function() payable public {}\n\n    function deposit(uint256 amount) payable public {\n        require(msg.value == amount);\n    }\n\n    function getBalance() public view returns (uint256) {\n        return address(this).balance;\n    }\n}\n",
  "sourcePath": "/home/gasolin/Documents/eth/truffle-react-demo/contracts/contracts/TipJar.sol",
  "compiler": {
    "name": "solc",
    "version": "0.4.21+commit.dfe3193c.Emscripten.clang"
  },
  "schemaVersion": "2.0.0",
  "updatedAt": "2018-04-20T08:31:25.072Z"
}