{
  "contractName": "TokenSale",
  "abi": [
    {
      "constant": true,
      "inputs": [],
      "name": "tokensSold",
      "outputs": [
        {
          "name": "",
          "type": "uint256"
        }
      ],
      "payable": false,
      "stateMutability": "view",
      "type": "function"
    },
    {
      "constant": true,
      "inputs": [],
      "name": "tokenContract",
      "outputs": [
        {
          "name": "",
          "type": "address"
        }
      ],
      "payable": false,
      "stateMutability": "view",
      "type": "function"
    },
    {
      "constant": true,
      "inputs": [],
      "name": "price",
      "outputs": [
        {
          "name": "",
          "type": "uint256"
        }
      ],
      "payable": false,
      "stateMutability": "view",
      "type": "function"
    },
    {
      "inputs": [
        {
          "name": "_tokenContract",
          "type": "address"
        },
        {
          "name": "_price",
          "type": "uint256"
        }
      ],
      "payable": false,
      "stateMutability": "nonpayable",
      "type": "constructor"
    },
    {
      "anonymous": false,
      "inputs": [
        {
          "indexed": false,
          "name": "buyer",
          "type": "address"
        },
        {
          "indexed": false,
          "name": "amount",
          "type": "uint256"
        }
      ],
      "name": "EvtSold",
      "type": "event"
    },
    {
      "constant": false,
      "inputs": [
        {
          "name": "numberOfTokens",
          "type": "uint256"
        }
      ],
      "name": "buyTokens",
      "outputs": [],
      "payable": true,
      "stateMutability": "payable",
      "type": "function"
    },
    {
      "constant": false,
      "inputs": [],
      "name": "endSale",
      "outputs": [],
      "payable": false,
      "stateMutability": "nonpayable",
      "type": "function"
    }
  ],
  "bytecode": "0x6060604052341561000f57600080fd5b6040516040806108408339810160405280805190602001909190805190602001909190505033600260006101000a81548173ffffffffffffffffffffffffffffffffffffffff021916908373ffffffffffffffffffffffffffffffffffffffff160217905550816000806101000a81548173ffffffffffffffffffffffffffffffffffffffff021916908373ffffffffffffffffffffffffffffffffffffffff160217905550806001819055505050610773806100cd6000396000f30060606040526004361061006d576000357c0100000000000000000000000000000000000000000000000000000000900463ffffffff1680633610724e14610072578063380d831b1461008a578063518ab2a81461009f57806355a373d6146100c8578063a035b1fe1461011d575b600080fd5b6100886004808035906020019091905050610146565b005b341561009557600080fd5b61009d61044e565b005b34156100aa57600080fd5b6100b26106db565b6040518082815260200191505060405180910390f35b34156100d357600080fd5b6100db6106e1565b604051808273ffffffffffffffffffffffffffffffffffffffff1673ffffffffffffffffffffffffffffffffffffffff16815260200191505060405180910390f35b341561012857600080fd5b610130610706565b6040518082815260200191505060405180910390f35b60006101548260015461070c565b3414151561016157600080fd5b610208826000809054906101000a900473ffffffffffffffffffffffffffffffffffffffff1673ffffffffffffffffffffffffffffffffffffffff1663313ce5676040518163ffffffff167c0100000000000000000000000000000000000000000000000000000000028152600401602060405180830381600087803b15156101e957600080fd5b5af115156101f657600080fd5b50505060405180519050600a0a61070c565b9050806000809054906101000a900473ffffffffffffffffffffffffffffffffffffffff1673ffffffffffffffffffffffffffffffffffffffff166370a08231306040518263ffffffff167c0100000000000000000000000000000000000000000000000000000000028152600401808273ffffffffffffffffffffffffffffffffffffffff1673ffffffffffffffffffffffffffffffffffffffff168152602001915050602060405180830381600087803b15156102c657600080fd5b5af115156102d357600080fd5b50505060405180519050101515156102ea57600080fd5b7f4d129ab0dceb8690390352dfabc6a972075adb92bbe13162bec17ec34c5b8cb73383604051808373ffffffffffffffffffffffffffffffffffffffff1673ffffffffffffffffffffffffffffffffffffffff1681526020018281526020019250505060405180910390a1816003600082825401925050819055506000809054906101000a900473ffffffffffffffffffffffffffffffffffffffff1673ffffffffffffffffffffffffffffffffffffffff1663a9059cbb33836040518363ffffffff167c0100000000000000000000000000000000000000000000000000000000028152600401808373ffffffffffffffffffffffffffffffffffffffff1673ffffffffffffffffffffffffffffffffffffffff16815260200182815260200192505050602060405180830381600087803b151561042857600080fd5b5af1151561043557600080fd5b50505060405180519050151561044a57600080fd5b5050565b600260009054906101000a900473ffffffffffffffffffffffffffffffffffffffff1673ffffffffffffffffffffffffffffffffffffffff163373ffffffffffffffffffffffffffffffffffffffff161415156104aa57600080fd5b6000809054906101000a900473ffffffffffffffffffffffffffffffffffffffff1673ffffffffffffffffffffffffffffffffffffffff1663a9059cbb600260009054906101000a900473ffffffffffffffffffffffffffffffffffffffff166000809054906101000a900473ffffffffffffffffffffffffffffffffffffffff1673ffffffffffffffffffffffffffffffffffffffff166370a08231306040518263ffffffff167c0100000000000000000000000000000000000000000000000000000000028152600401808273ffffffffffffffffffffffffffffffffffffffff1673ffffffffffffffffffffffffffffffffffffffff168152602001915050602060405180830381600087803b15156105c557600080fd5b5af115156105d257600080fd5b505050604051805190506040518363ffffffff167c0100000000000000000000000000000000000000000000000000000000028152600401808373ffffffffffffffffffffffffffffffffffffffff1673ffffffffffffffffffffffffffffffffffffffff16815260200182815260200192505050602060405180830381600087803b151561066057600080fd5b5af1151561066d57600080fd5b50505060405180519050151561068257600080fd5b3373ffffffffffffffffffffffffffffffffffffffff166108fc3073ffffffffffffffffffffffffffffffffffffffff16319081150290604051600060405180830381858888f1935050505015156106d957600080fd5b565b60035481565b6000809054906101000a900473ffffffffffffffffffffffffffffffffffffffff1681565b60015481565b60008060008414156107215760009150610740565b828402905082848281151561073257fe5b0414151561073c57fe5b8091505b50929150505600a165627a7a72305820cfb35dc918a179f519e2f0a192097d9342b02da6e0575c3410d147232569f6830029",
  "source": "pragma solidity ^0.4.21;\n\ninterface IERC20Token {\n    function balanceOf(address owner) public returns (uint256);\n    function transfer(address to, uint256 amount) public returns (bool);\n    function decimals() public returns (uint256);\n}\n\ncontract TokenSale {\n    IERC20Token public tokenContract;\n    uint256 public price;\n    address owner;\n    uint256 public tokensSold;\n\n    function TokenSale(IERC20Token _tokenContract, uint256 _price) public {\n        owner = msg.sender;\n        tokenContract = _tokenContract;\n        price = _price;\n    }\n\n    // Guards against integer overflows\n    function safeMultiply(uint256 a, uint256 b) internal pure returns (uint256) {\n        if (a == 0) {\n            return 0;\n        } else {\n            uint256 c = a * b;\n            assert(c / a == b);\n            return c;\n        }\n    }\n\n    event EvtSold(address buyer, uint256 amount);\n\n    function buyTokens(uint256 numberOfTokens) public payable {\n        require(msg.value == safeMultiply(numberOfTokens, price));\n\n        uint256 scaledAmount = safeMultiply(\n            numberOfTokens, uint256(10) ** tokenContract.decimals());\n\n        require(tokenContract.balanceOf(this) >= scaledAmount);\n\n        emit EvtSold(msg.sender, numberOfTokens);\n        tokensSold += numberOfTokens;\n        require(tokenContract.transfer(msg.sender, scaledAmount));\n    }\n\n    function endSale() public {\n        require(msg.sender == owner);\n\n        require(tokenContract.transfer(owner, tokenContract.balanceOf(this)));\n        msg.sender.transfer(address(this).balance);\n    }\n}\n",
  "sourcePath": "/home/gasolin/Documents/eth/truffle-react-demo/contracts/contracts/TokenSale.sol",
  "compiler": {
    "name": "solc",
    "version": "0.4.21+commit.dfe3193c.Emscripten.clang"
  },
  "schemaVersion": "2.0.0",
  "updatedAt": "2018-04-20T08:29:43.771Z"
}