{
  "contractName": "Trivial",
  "abi": [
    {
      "constant": true,
      "inputs": [],
      "name": "getValue",
      "outputs": [
        {
          "name": "",
          "type": "uint256"
        }
      ],
      "payable": false,
      "stateMutability": "pure",
      "type": "function"
    }
  ],
  "bytecode": "0x60606040523415600e57600080fd5b609f8061001c6000396000f300606060405260043610603f576000357c0100000000000000000000000000000000000000000000000000000000900463ffffffff16806320965255146044575b600080fd5b3415604e57600080fd5b6054606a565b6040518082815260200191505060405180910390f35b6000604d9050905600a165627a7a72305820d4a41ea90f8dd3e2e30344c8a6226e6ae06803317144e29ff072a7658c14fbf10029",
  "source": "pragma solidity ^0.4.19;\n\ncontract Trivial {\n    function getValue() public pure returns (uint256) {\n        return 77;\n    }\n}\n",
  "sourcePath": "/home/gasolin/Documents/eth/blockdemo/contracts/contracts/Trivial.sol",
  "compiler": {
    "name": "solc",
    "version": "0.4.21+commit.dfe3193c.Emscripten.clang"
  },
  "schemaVersion": "2.0.0",
  "updatedAt": "2018-04-15T02:49:13.148Z"
}